{
  "contractName": "NirvanaPaymentChannel",
  "abi": [
    {
      "inputs": [],
      "payable": false,
      "stateMutability": "nonpayable",
      "type": "constructor"
    },
    {
      "constant": true,
      "inputs": [
        {
          "internalType": "address",
          "name": "",
          "type": "address"
        }
      ],
      "name": "customers",
      "outputs": [
        {
          "internalType": "bool",
          "name": "exists",
          "type": "bool"
        },
        {
          "internalType": "uint256",
          "name": "customer_collateral",
          "type": "uint256"
        },
        {
          "internalType": "uint256",
          "name": "duration",
          "type": "uint256"
        }
      ],
      "payable": false,
      "stateMutability": "view",
      "type": "function"
    },
    {
      "constant": true,
      "inputs": [
        {
          "internalType": "address",
          "name": "",
          "type": "address"
        }
      ],
      "name": "merchants",
      "outputs": [
        {
          "internalType": "bool",
          "name": "exists",
          "type": "bool"
        },
        {
          "internalType": "uint256",
          "name": "earnings",
          "type": "uint256"
        }
      ],
      "payable": false,
      "stateMutability": "view",
      "type": "function"
    },
    {
      "constant": false,
      "inputs": [],
      "name": "registerCustomer",
      "outputs": [],
      "payable": true,
      "stateMutability": "payable",
      "type": "function"
    },
    {
      "constant": false,
      "inputs": [
        {
          "internalType": "address payable[]",
          "name": "_merchantAddresses",
          "type": "address[]"
        }
      ],
      "name": "add_merchants",
      "outputs": [],
      "payable": false,
      "stateMutability": "nonpayable",
      "type": "function"
    }
  ],
  "bytecode": "0x608060405234801561001057600080fd5b5033600160006101000a81548173ffffffffffffffffffffffffffffffffffffffff021916908373ffffffffffffffffffffffffffffffffffffffff160217905550610665806100616000396000f3fe60806040526004361061003f5760003560e01c80632735701114610044578063336989ae1461004e57806367fb729e146100c5578063ee14e9391461018a575b600080fd5b61004c6101fa565b005b34801561005a57600080fd5b5061009d6004803603602081101561007157600080fd5b81019080803573ffffffffffffffffffffffffffffffffffffffff1690602001909291905050506102e5565b6040518084151515158152602001838152602001828152602001935050505060405180910390f35b3480156100d157600080fd5b50610188600480360360208110156100e857600080fd5b810190808035906020019064010000000081111561010557600080fd5b82018360208201111561011757600080fd5b8035906020019184602083028401116401000000008311171561013957600080fd5b919080806020026020016040519081016040528093929190818152602001838360200280828437600081840152601f19601f82011690508083019250505050505050919291929050505061031c565b005b34801561019657600080fd5b506101d9600480360360208110156101ad57600080fd5b81019080803573ffffffffffffffffffffffffffffffffffffffff16906020019092919050505061050e565b60405180831515151581526020018281526020019250505060405180910390f35b34600360003373ffffffffffffffffffffffffffffffffffffffff1673ffffffffffffffffffffffffffffffffffffffff168152602001908152602001600020600101819055506001600360003373ffffffffffffffffffffffffffffffffffffffff1673ffffffffffffffffffffffffffffffffffffffff16815260200190815260200160002060000160006101000a81548160ff02191690831515021790555042600360003373ffffffffffffffffffffffffffffffffffffffff1673ffffffffffffffffffffffffffffffffffffffff16815260200190815260200160002060020181905550565b60036020528060005260406000206000915090508060000160009054906101000a900460ff16908060010154908060020154905083565b600160009054906101000a900473ffffffffffffffffffffffffffffffffffffffff1673ffffffffffffffffffffffffffffffffffffffff163373ffffffffffffffffffffffffffffffffffffffff16146103c2576040517f08c379a000000000000000000000000000000000000000000000000000000000815260040180806020018281038252602481526020018061060d6024913960400191505060405180910390fd5b80600290805190602001906103d892919061053f565b5060008090505b60028054905081101561050a57600160046000600284815481106103ff57fe5b9060005260206000200160009054906101000a900473ffffffffffffffffffffffffffffffffffffffff1673ffffffffffffffffffffffffffffffffffffffff1673ffffffffffffffffffffffffffffffffffffffff16815260200190815260200160002060000160006101000a81548160ff0219169083151502179055506000600460006002848154811061049157fe5b9060005260206000200160009054906101000a900473ffffffffffffffffffffffffffffffffffffffff1673ffffffffffffffffffffffffffffffffffffffff1673ffffffffffffffffffffffffffffffffffffffff1681526020019081526020016000206001018190555080806001019150506103df565b5050565b60046020528060005260406000206000915090508060000160009054906101000a900460ff16908060010154905082565b8280548282559060005260206000209081019282156105b8579160200282015b828111156105b75782518260006101000a81548173ffffffffffffffffffffffffffffffffffffffff021916908373ffffffffffffffffffffffffffffffffffffffff1602179055509160200191906001019061055f565b5b5090506105c591906105c9565b5090565b61060991905b8082111561060557600081816101000a81549073ffffffffffffffffffffffffffffffffffffffff0219169055506001016105cf565b5090565b9056fe4f6e6c79204e697276616e612063616e2063616c6c20746869732066756e6374696f6e2ea265627a7a723158206bc5863a1f2ea19978ef69bd4c457cd412760063d176c806a14e7d6f6802656c64736f6c63430005100032",
  "source": "pragma solidity >=0.4.22 <0.9.0;\n\n/**\n* @title Nirvana\n* @dev Accept customer deposits and allow merchant withdrawals. A customer is allowed to deposit 100 milliether per collateral.\n*/\n\ncontract NirvanaPaymentChannel{\n\nuint256 p_nonce; //indicates payment nonce. Used by Customers to make multiple payments to merchants. \n //uint256 secrets_required;\naddress owner;\naddress payable[] merchants_in_network;\n \nstruct Customer{\n    bool exists;\n    uint256 customer_collateral;\n    uint256 duration;\n    //bytes32[] secret_hashes;\n}\n\nstruct Merchant{\n    bool exists;\n    uint256 earnings;\n}\nmapping(address => Customer) public customers;\nmapping(address => Merchant) public merchants; \n \nconstructor () public {\n    owner = msg.sender;\n \n}\n \nmodifier onlyOwner { require(msg.sender == owner, 'Only Nirvana can call this function.'); _;}\n \n\n \n \nfunction registerCustomer() public payable{\n    \n    customers[msg.sender].customer_collateral = msg.value;\n    customers[msg.sender].exists = true;\n    customers[msg.sender].duration = block.timestamp; \n   \n}\n \nfunction add_merchants(address payable[] memory _merchantAddresses) public onlyOwner{\n    merchants_in_network = _merchantAddresses;\n    for(uint i=0; i<merchants_in_network.length; i++){\n        merchants[merchants_in_network[i]].exists = true;\n        merchants[merchants_in_network[i]].earnings = 0;\n    }\n}\n \n\n \n}",
  "sourcePath": "/Users/pallavisaxena/Nirvana/contracts/Nirvana.sol",
  "compiler": {
    "name": "solc",
    "version": "0.5.16+commit.9c3226ce.Emscripten.clang"
  },
  "schemaVersion": "3.2.3",
  "updatedAt": "2022-08-03T14:14:41.022Z",
  "devdoc": {
    "details": "Accept customer deposits and allow merchant withdrawals. A customer is allowed to deposit 100 milliether per collateral.",
    "methods": {},
    "title": "Nirvana"
  },
  "userdoc": {
    "methods": {}
  }
}